:0400000080315A28C9
:100008007E1480314101111E0A280B2858284F01FF
:100018001A121A1B1028112815289A1F1428152897
:100028001F281608F300F4017308F7007408F80095
:100038001A139A131A16991A222823283E281919CE
:10004800262827283E281608F300F4017308F7002D
:100058007408F8001A16191C322833282F28160895
:10006800F3007308FB007B088031962080314F0134
:100078001A165428991A412842285428191D452827
:10008800462854281608F300F4017308F70074088A
:10009800F800191096011A161918532854285028D0
:1000A800410111124F011A167E10090080315C2897
:1000B800813106218031FC00813107218031FD002A
:1000C800F701F801F901FA01FB017E1040018031C6
:1000D8006D288031D52080318031F0208031013089
:1000E8008031B620803151018C170C130C08CF39A0
:1000F80020388C00F3308C050C107A0851018D00E3
:100108007D0C4001031C0C1203180C167D09F60027
:10011800F60EF60D0C087606DF3976068C00812877
:1001280080315A28F200790803199B289C28AD28A9
:100138007208F0000730F036890B9F287008F1002C
:100148007108FD0072087F39F0007008FA00F901A3
:10015800B52872087C06031DB228B328AB28F9011C
:10016800F90A0800A4304F0199000630F500750817
:100178009A0401309B009C01970198017D010C10A5
:100188008C104001121492147D010D148D148B17DC
:100198000B1741011B1611129B164F011C179A16BB
:1001A80008008B1355307C018C00AA308C000C1091
:1001B800CB010130CA007B010C08C0391E388C0005
:1001C8000D08C0391D388D0055307C018C00AA30CF
:1001D8008C000C148B17080050018C1390137A01B3
:1001E800A61346010E1014104001921298127D01B8
:1001F8008C1240018C12121218127D010C1240014F
:080208000C120800013401345E
:020000040001F9
:0A000E00FC3FFF3F9F3FFF3FFF3F15
:00000001FF
