:0400000080315828CB
:100008007E1480314101111E0A280B2856284F0101
:100018001A121A1B1028112815289A1F1428152897
:100028001F281608F700F8017708F0007808F10093
:100038001A139A131A16991A222823283C281919D0
:10004800262827283C281608F700F8017708F0002A
:100058007808F1001A16191C322833282F28160898
:10006800F40074088031B12080314F011A165228EB
:10007800991A3F2840285228191D432844285228F5
:100088001608F700F8017708F0007808F100191051
:1000980096011A161918512852284E284101111292
:1000A8004F011A167E10090080315A288031FE202F
:1000B8008031FA008031FF208031FB00F001F1012E
:1000C800F201F301F4017E10400180316B28803188
:1000D800CD2080318031E82080310130803194207A
:1000E800803151018C170C130C08CF3920388C0043
:1000F800F3308C050C10730851018D007B0C400106
:10010800031C0C1203180C167B09F900F90EF90DE3
:100118000C087906DF3979068C007F288031582849
:10012800A4304F01990006309A0401309B009C01CD
:10013800970198017D010C108C1040011214921443
:100148007D010D148D148B170B1741011B1611120D
:100158009B164F011C179A160800F600720803191F
:10016800B628B728C4287608F5000730F536890B75
:10017800BA287508FB0076087F39F300F201CC280D
:1001880076087A06031DC928CA28C2280130F20059
:1001980008008B1355307C018C00AA308C000C10A1
:1001A800CB010130CA007B010C08C0391E388C0015
:1001B8000D08C0391D388D0055307C018C00AA30DF
:1001C8008C000C148B17080050018C1390137A01C3
:1001D800A61346010E1014104001921298127D01C8
:1001E8008C1240018C12121218127D010C1240015F
:0801F8000C120800013401346F
:020000040001F9
:0A000E00FC3FFF3F9F3FFF3FFF3F15
:00000001FF
